:03000000020AE110
:0C0AE100787FE4F6D8FD75811B020B281D
:100CCD003F065B4F666D7D077F6F777C395E79716F
:0C0CEA000314000000011B0002190000B0
:0D0CDD00758909E4F58CF58AD2AFD2A92201
:03000B00020D09DA
:070D0900758C00758A0032B1
:100BDD00AF8CEFFEAD8A7C00E42DF51AEC3EF519D5
:100BED00E4F58CF58AAC19AD1A1209AB7B9A7A999A
:100BFD0079D9783F120800E4FBFA79C878421209D6
:100C0D00091209E48F1BC3EF94F47480948140039F
:060C1D00751BF4020B6DD3
:100C2300120CDD120C7BD290000000000000C29079
:100C33003091FDD28C2091FDC28C120BDD7F187E8A
:100C430001120CF77B007A007908120C98120C55EC
:020C530080D44B
:0A0CF700EF1F70011E144E70F7226B
:100B6D00AF1B7E007C037DE8120A7EAA04AB057DD7
:100B7D00647C00AF03AE02120A7E8F167D647C008A
:100B8D00AF03AE02120A7E7E007F0ACFCDCFCECC50
:100B9D00CE120A7E8F15AF1B7E007C037DE8120AF4
:100BAD007E7E007F0ACFCDCFCECCCE120A7E7E00C8
:100BBD007F0ACFCDCFCECCCE120A7E8D14E5142474
:100BCD0030F50AE5152430F509E5162430F508222F
:100CB400EF1392A2EF5402C31324FF92A3EF540440
:090CC4001313543F24FF92A422F3
:100C5500E4FDFCAF05120CB474142DF8E6900CCD30
:100C650093F5807FC87E00120CF70DBD00010CEDD9
:050C750064034C70DE79
:010C7A002257
:100C7B00759850438920758DFD758BFDD28ED2AF43
:0D0C8B00D2AC75CB0B75CADCD2ADD2CA223B
:080D01008F993099FDC299227F
:100C9800120A65FF600C120D01740129F9E43AFA91
:0C0CA80080EE7F0D120D017F0A020D018D
:03002300020D10BB
:060D1000309802C2983287
:10080000EC4D6011E8497017ED33EC3304600DE4F2
:10081000FCFFFEFD22E933E8330470F8020A5012AF
:100820000A1B58046009E4CC2481500628500902B0
:100830000A5A284003020A57C0E0EB4A7044B980C4
:1008400006D0E0FB020A46EF4E701CBD8008EBFFAD
:10085000EAFEE9FD80EBE98DF0A4FEE5F00208E98F
:10086000E9CDF9EAFEEBFFEF89F0A4FCE5F0CE89D3
:10087000F0A42EFFE435F0CD89F0A42DFEE435F090
:100880008067EF4E7005BD80D780C3EF8BF0A4ACBE
:10089000F0EE8BF0A42CFCE435F0F8EF8AF0A42CF9
:1008A000E5F038FCE433CB8DF0A42CFCE5F03BF80C
:1008B000EE8AF0A42CFCE5F038F8E433CF89F0A4FC
:1008C0002CFCE5F038CF3400CE89F0A42FFFE5F002
:1008D0003EFEE433C98DF0A42EFEE5F039CD8AF05A
:1008E000A42FFFE5F03EFEE43DFD33D0E0FB5007D2
:1008F0000BBB000F020A5AEC2CFCEF33FFEE33FE69
:06090000ED33FD020A3296
:10090600020A5AEC5D046005E859047003020A50B5
:10091600120A1B580460F6EC4860F2EC7004FDFE07
:10092600FF22C860DB2481C85009C39860025006C4
:10093600020A579850CAF582E9294B4A7005AB82DC
:10094600020A4675F0007C1A7880C3EF9BEE9AED9A
:1009560099400DC3EF9BFFEE9AFEED99FDE842F03C
:10096600DC23ACF0D0E0FFD0E0FED0E0FDAB82208F
:10097600E7101BEB60BAEC2CFCEF33FFEE33FEED19
:1009860033FD020A32E803F830E705C0F075F000DF
:10099600EF2FFFEE33FEED33FD40B830E7C280AAFD
:1009A60075F020800E75F010800575F0087D007ECC
:1009B600007F003392D530D503120AD3EC334010B2
:1009C600EF33FFEE33FEED33FDEC33FCD5F0ED22D5
:0E09D600E5F0247EA2D513CC92E7CDCEFF2211
:1009E400EDD2E7CD33EC3392D524814006E4FFFE0B
:1009F400FDFC22FCE4CFCECDCC24E0501174FF806A
:100A0400EDC3CC13CCCD13CDCE13CECF13CF047006
:070A1400F030D5DE020AD329
:100A1B00E9D2E7C933E833F892D5EDD2E7CD33EC21
:070A2B0033FC5002B2D5229A
:100A3200EC30E7100FBF000C0EBE00080DBD000425
:100A42000BEB6014A2D5EB13FCED92E7FD2274FFD1
:100A5200FCFDFEFF22E480F8A2D574FF13FC7D802A
:030A6200E480EF3E
:100AED00020C23E493A3F8E493A34003F68001F2F0
:100AFD0008DFF48029E493A3F85407240CC8C3330A
:100B0D00C4540F4420C8834004F456800146F6DFD8
:100B1D00E4800B0102040810204080900CEAE47E72
:100B2D00019360BCA3FF543F30E509541FFEE493CD
:100B3D00A360010ECF54C025E060A840B8E493A394
:100B4D00FAE493A3F8E493A3C8C582C8CAC583CABF
:100B5D00F0A3C8C582C8CAC583CADFE9DEE780BE77
:010CF60000FD
:100A6500BB010689828A83E0225002E722BBFE028F
:090A7500E32289828A83E49322C2
:100A7E00BC000BBE0029EF8DF084FFADF022E4CC5C
:100A8E00F875F008EF2FFFEE33FEEC33FCEE9DEC25
:100A9E00984005FCEE9DFE0FD5F0E9E4CEFD22ED6B
:100AAE00F8F5F0EE8420D21CFEADF075F008EF2FB5
:100ABE00FFED33FD4007985006D5F0F222C398FDA6
:050ACE000FD5F0EA2243
:0E0AD300C3E49FFFE49EFEE49DFDE49CFC2234
:00000001FF
